{
  "contractName": "Election",
  "abi": [
    {
      "inputs": [],
      "stateMutability": "nonpayable",
      "type": "constructor"
    },
    {
      "anonymous": false,
      "inputs": [
        {
          "indexed": false,
          "internalType": "uint256",
          "name": "_candidateId",
          "type": "uint256"
        }
      ],
      "name": "electionOnUpdated",
      "type": "event"
    },
    {
      "inputs": [
        {
          "internalType": "uint256",
          "name": "",
          "type": "uint256"
        }
      ],
      "name": "candidates",
      "outputs": [
        {
          "internalType": "uint256",
          "name": "id",
          "type": "uint256"
        },
        {
          "internalType": "string",
          "name": "name",
          "type": "string"
        },
        {
          "internalType": "uint256",
          "name": "voteCount",
          "type": "uint256"
        },
        {
          "internalType": "uint256",
          "name": "age",
          "type": "uint256"
        },
        {
          "internalType": "string",
          "name": "desripition",
          "type": "string"
        }
      ],
      "stateMutability": "view",
      "type": "function",
      "constant": true
    },
    {
      "inputs": [],
      "name": "candidatesCount",
      "outputs": [
        {
          "internalType": "uint256",
          "name": "",
          "type": "uint256"
        }
      ],
      "stateMutability": "view",
      "type": "function",
      "constant": true
    },
    {
      "inputs": [
        {
          "internalType": "address",
          "name": "",
          "type": "address"
        }
      ],
      "name": "votedornot",
      "outputs": [
        {
          "internalType": "bool",
          "name": "",
          "type": "bool"
        }
      ],
      "stateMutability": "view",
      "type": "function",
      "constant": true
    },
    {
      "inputs": [
        {
          "internalType": "string",
          "name": "name",
          "type": "string"
        },
        {
          "internalType": "uint256",
          "name": "age",
          "type": "uint256"
        },
        {
          "internalType": "string",
          "name": "desripition",
          "type": "string"
        }
      ],
      "name": "addCandidate",
      "outputs": [],
      "stateMutability": "nonpayable",
      "type": "function"
    },
    {
      "inputs": [
        {
          "internalType": "uint256",
          "name": "_candidateId",
          "type": "uint256"
        }
      ],
      "name": "vote",
      "outputs": [],
      "stateMutability": "nonpayable",
      "type": "function"
    }
  ],
  "bytecode": "0x608060405234801561001057600080fd5b506100706040518060400160405280600b81526020017f68756d616e2066697273740000000000000000000000000000000000000000008152506012604051806060016040528060258152602001610a4c6025913961013360201b60201c565b6100cf6040518060400160405280600c81526020017f68756d616e207365636f6e640000000000000000000000000000000000000000815250601c6040518060600160405280602d8152602001610a71602d913961013360201b60201c565b61012e6040518060400160405280600c81526020017f68756d616e207365636f6e640000000000000000000000000000000000000000815250601c6040518060600160405280602d8152602001610a71602d913961013360201b60201c565b61027f565b60008081548092919060010191905055506040518060a001604052806000548152602001848152602001600081526020018381526020018281525060016000805481526020019081526020016000206000820151816000015560208201518160010190805190602001906101a89291906101e2565b50604082015181600201556060820151816003015560808201518160040190805190602001906101d99291906101e2565b50905050505050565b828054600181600116156101000203166002900490600052602060002090601f016020900481019282601f1061022357805160ff1916838001178555610251565b82800160010185558215610251579182015b82811115610250578251825591602001919060010190610235565b5b50905061025e9190610262565b5090565b5b8082111561027b576000816000905550600101610263565b5090565b6107be8061028e6000396000f3fe608060405234801561001057600080fd5b50600436106100575760003560e01c80630121b93f1461005c5780631bc570221461008a5780632d35a8a2146100e45780633477ee2e14610102578063e74f92521461022a575b600080fd5b6100886004803603602081101561007257600080fd5b8101908080359060200190929190505050610386565b005b6100cc600480360360208110156100a057600080fd5b81019080803573ffffffffffffffffffffffffffffffffffffffff1690602001909291905050506104b0565b60405180821515815260200191505060405180910390f35b6100ec6104d0565b6040518082815260200191505060405180910390f35b61012e6004803603602081101561011857600080fd5b81019080803590602001909291905050506104d6565b604051808681526020018060200185815260200184815260200180602001838103835287818151815260200191508051906020019080838360005b83811015610184578082015181840152602081019050610169565b50505050905090810190601f1680156101b15780820380516001836020036101000a031916815260200191505b50838103825284818151815260200191508051906020019080838360005b838110156101ea5780820151818401526020810190506101cf565b50505050905090810190601f1680156102175780820380516001836020036101000a031916815260200191505b5097505050505050505060405180910390f35b6103846004803603606081101561024057600080fd5b810190808035906020019064010000000081111561025d57600080fd5b82018360208201111561026f57600080fd5b8035906020019184600183028401116401000000008311171561029157600080fd5b91908080601f016020809104026020016040519081016040528093929190818152602001838380828437600081840152601f19601f82011690508083019250505050505050919291929080359060200190929190803590602001906401000000008111156102fe57600080fd5b82018360208201111561031057600080fd5b8035906020019184600183028401116401000000008311171561033257600080fd5b91908080601f016020809104026020016040519081016040528093929190818152602001838380828437600081840152601f19601f82011690508083019250505050505050919291929050505061063c565b005b600260003373ffffffffffffffffffffffffffffffffffffffff1673ffffffffffffffffffffffffffffffffffffffff16815260200190815260200160002060009054906101000a900460ff16156103dd57600080fd5b6000811180156103ef57506000548111155b6103f857600080fd5b60016000828152602001908152602001600020600201600081548092919060010191905055506001600260003373ffffffffffffffffffffffffffffffffffffffff1673ffffffffffffffffffffffffffffffffffffffff16815260200190815260200160002060006101000a81548160ff0219169083151502179055507fb9102b2f3966c526bc3cb6fd18854f8363936816dec72369059c1176ccd7c026816040518082815260200191505060405180910390a150565b60026020528060005260406000206000915054906101000a900460ff1681565b60005481565b6001602052806000526040600020600091509050806000015490806001018054600181600116156101000203166002900480601f0160208091040260200160405190810160405280929190818152602001828054600181600116156101000203166002900480156105885780601f1061055d57610100808354040283529160200191610588565b820191906000526020600020905b81548152906001019060200180831161056b57829003601f168201915b505050505090806002015490806003015490806004018054600181600116156101000203166002900480601f0160208091040260200160405190810160405280929190818152602001828054600181600116156101000203166002900480156106325780601f1061060757610100808354040283529160200191610632565b820191906000526020600020905b81548152906001019060200180831161061557829003601f168201915b5050505050905085565b60008081548092919060010191905055506040518060a001604052806000548152602001848152602001600081526020018381526020018281525060016000805481526020019081526020016000206000820151816000015560208201518160010190805190602001906106b19291906106eb565b50604082015181600201556060820151816003015560808201518160040190805190602001906106e29291906106eb565b50905050505050565b828054600181600116156101000203166002900490600052602060002090601f016020900481019282601f1061072c57805160ff191683800117855561075a565b8280016001018555821561075a579182015b8281111561075957825182559160200191906001019061073e565b5b509050610767919061076b565b5090565b5b8082111561078457600081600090555060010161076c565b509056fea2646970667358221220a262cd2c501c3859905a735fa51b13a3dd0947c3278f715a8579d7f6424ccb7f64736f6c6343000700003374686973206973206d79206465737269706974696f6e20666f722063616e64696461746573616c736f2074686973206d79206465737269706974696f6e20666f722063616e64696461746573206275742032",
  "immutableReferences": {},
  "source": " // SPDX-License-Identifier: MIT\r\npragma solidity ^0.7.0;\r\n\r\ncontract Election{\r\n    //model candidate\r\n    struct Candidate{\r\n        uint id;\r\n        string name; // имя\r\n        uint voteCount; //количество голосов\r\n        uint age; // возраст\r\n        string desripition;\r\n    }\r\n    \r\n    // Candidate public cand = Candidate(1,\"zero\",0);\r\n    \r\n    // candidate count\r\n    uint public candidatesCount;\r\n    \r\n    mapping(uint => Candidate) public candidates;\r\n    mapping(address => bool) public votedornot;\r\n    \r\n    event electionOnUpdated(\r\n        uint _candidateId\r\n        );\r\n    \r\n    constructor(){\r\n        addCandidate(\"human first\", 18, \"this is my desripition for candidates\");\r\n        addCandidate(\"human second\", 28, \"also this my desripition for candidates but 2\");\r\n        addCandidate(\"human second\", 28, \"also this my desripition for candidates but 2\");\r\n\r\n    }\r\n\r\n    function addCandidate(string memory name, uint age, string memory desripition) public{\r\n        candidatesCount++;\r\n        candidates[candidatesCount] = Candidate(candidatesCount, name, 0, age, desripition);\r\n    }\r\n    \r\n    function vote(uint _candidateId) public {//голосование \r\n        require(!votedornot[msg.sender]); //проверка на голосовал ли\r\n        require(_candidateId > 0 && _candidateId <= candidatesCount); // существиет ли кандидат\r\n        \r\n        candidates[_candidateId].voteCount++; //добавление на текущего кандидата к количеству голосов\r\n        votedornot[msg.sender] = true; // голосовал ли проверка\r\n        \r\n        emit electionOnUpdated(_candidateId);\r\n        //triger event candidate\r\n    }\r\n}\r\n// truffle migrate --reset = миграции ",
  "sourcePath": "C:/Users/017/Desktop/Blockchain/DAPP/election-app/contracts/Election.sol",
  "compiler": {
    "name": "solc",
    "version": "0.7.0+commit.9e61f92b.Emscripten.clang"
  },
  "schemaVersion": "3.4.1",
  "updatedAt": "2021-09-09T09:27:19.717Z",
  "networkType": "ethereum",
  "devdoc": {
    "kind": "dev",
    "methods": {},
    "version": 1
  },
  "userdoc": {
    "kind": "user",
    "methods": {},
    "version": 1
  }
}