{
  "contractName": "Election",
  "abi": [
    {
      "inputs": [],
      "stateMutability": "nonpayable",
      "type": "constructor"
    },
    {
      "anonymous": false,
      "inputs": [
        {
          "indexed": false,
          "internalType": "uint256",
          "name": "_candidateId",
          "type": "uint256"
        }
      ],
      "name": "electionOnUpdated",
      "type": "event"
    },
    {
      "inputs": [
        {
          "internalType": "uint256",
          "name": "",
          "type": "uint256"
        }
      ],
      "name": "candidates",
      "outputs": [
        {
          "internalType": "uint256",
          "name": "id",
          "type": "uint256"
        },
        {
          "internalType": "string",
          "name": "name",
          "type": "string"
        },
        {
          "internalType": "uint256",
          "name": "voteCount",
          "type": "uint256"
        }
      ],
      "stateMutability": "view",
      "type": "function",
      "constant": true
    },
    {
      "inputs": [],
      "name": "candidatesCount",
      "outputs": [
        {
          "internalType": "uint256",
          "name": "",
          "type": "uint256"
        }
      ],
      "stateMutability": "view",
      "type": "function",
      "constant": true
    },
    {
      "inputs": [
        {
          "internalType": "address",
          "name": "",
          "type": "address"
        }
      ],
      "name": "votedornot",
      "outputs": [
        {
          "internalType": "bool",
          "name": "",
          "type": "bool"
        }
      ],
      "stateMutability": "view",
      "type": "function",
      "constant": true
    },
    {
      "inputs": [
        {
          "internalType": "string",
          "name": "name",
          "type": "string"
        }
      ],
      "name": "addCandidate",
      "outputs": [],
      "stateMutability": "nonpayable",
      "type": "function"
    },
    {
      "inputs": [
        {
          "internalType": "uint256",
          "name": "_candidateId",
          "type": "uint256"
        }
      ],
      "name": "vote",
      "outputs": [],
      "stateMutability": "nonpayable",
      "type": "function"
    }
  ],
  "bytecode": "0x608060405234801561001057600080fd5b506100556040518060400160405280600381526020017f4c6576000000000000000000000000000000000000000000000000000000000081525061009e60201b60201c565b6100996040518060400160405280600581526020017f546967657200000000000000000000000000000000000000000000000000000081525061009e60201b60201c565b6101b5565b60008081548092919060010191905055506040518060600160405280600054815260200182815260200160008152506001600080548152602001908152602001600020600082015181600001556020820151816001019080519060200190610107929190610118565b506040820151816002015590505050565b828054600181600116156101000203166002900490600052602060002090601f016020900481019282601f1061015957805160ff1916838001178555610187565b82800160010185558215610187579182015b8281111561018657825182559160200191906001019061016b565b5b5090506101949190610198565b5090565b5b808211156101b1576000816000905550600101610199565b5090565b6105d1806101c46000396000f3fe608060405234801561001057600080fd5b50600436106100575760003560e01c80630121b93f1461005c5780631bc570221461008a5780632d35a8a2146100e45780633477ee2e14610102578063462e91ec146101b7575b600080fd5b6100886004803603602081101561007257600080fd5b8101908080359060200190929190505050610272565b005b6100cc600480360360208110156100a057600080fd5b81019080803573ffffffffffffffffffffffffffffffffffffffff16906020019092919050505061039c565b60405180821515815260200191505060405180910390f35b6100ec6103bc565b6040518082815260200191505060405180910390f35b61012e6004803603602081101561011857600080fd5b81019080803590602001909291905050506103c2565b6040518084815260200180602001838152602001828103825284818151815260200191508051906020019080838360005b8381101561017a57808201518184015260208101905061015f565b50505050905090810190601f1680156101a75780820380516001836020036101000a031916815260200191505b5094505050505060405180910390f35b610270600480360360208110156101cd57600080fd5b81019080803590602001906401000000008111156101ea57600080fd5b8201836020820111156101fc57600080fd5b8035906020019184600183028401116401000000008311171561021e57600080fd5b91908080601f016020809104026020016040519081016040528093929190818152602001838380828437600081840152601f19601f820116905080830192505050505050509192919290505050610484565b005b600260003373ffffffffffffffffffffffffffffffffffffffff1673ffffffffffffffffffffffffffffffffffffffff16815260200190815260200160002060009054906101000a900460ff16156102c957600080fd5b6000811180156102db57506000548111155b6102e457600080fd5b60016000828152602001908152602001600020600201600081548092919060010191905055506001600260003373ffffffffffffffffffffffffffffffffffffffff1673ffffffffffffffffffffffffffffffffffffffff16815260200190815260200160002060006101000a81548160ff0219169083151502179055507fb9102b2f3966c526bc3cb6fd18854f8363936816dec72369059c1176ccd7c026816040518082815260200191505060405180910390a150565b60026020528060005260406000206000915054906101000a900460ff1681565b60005481565b6001602052806000526040600020600091509050806000015490806001018054600181600116156101000203166002900480601f0160208091040260200160405190810160405280929190818152602001828054600181600116156101000203166002900480156104745780601f1061044957610100808354040283529160200191610474565b820191906000526020600020905b81548152906001019060200180831161045757829003601f168201915b5050505050908060020154905083565b600080815480929190600101919050555060405180606001604052806000548152602001828152602001600081525060016000805481526020019081526020016000206000820151816000015560208201518160010190805190602001906104ed9291906104fe565b506040820151816002015590505050565b828054600181600116156101000203166002900490600052602060002090601f016020900481019282601f1061053f57805160ff191683800117855561056d565b8280016001018555821561056d579182015b8281111561056c578251825591602001919060010190610551565b5b50905061057a919061057e565b5090565b5b8082111561059757600081600090555060010161057f565b509056fea26469706673582212201340a78f330d1309641a5c1503efebe4486deee04c67949c28a31647226a247e64736f6c63430007000033",
  "immutableReferences": {},
  "source": " // SPDX-License-Identifier: MIT\r\npragma solidity ^0.7.0;\r\n\r\ncontract Election{\r\n    //model candidate\r\n    struct Candidate{\r\n        uint id;\r\n        string name;\r\n        uint voteCount;\r\n    }\r\n    \r\n    // Candidate public cand = Candidate(1,\"zero\",0);\r\n    \r\n    // candidate count\r\n    uint public candidatesCount;\r\n    \r\n    mapping(uint => Candidate) public candidates;\r\n    mapping(address => bool) public votedornot;\r\n    \r\n    event electionOnUpdated(\r\n        uint _candidateId\r\n        );\r\n    \r\n    constructor(){\r\n        addCandidate(\"Lev\");\r\n        addCandidate(\"Tiger\");\r\n    }\r\n\r\n    function addCandidate(string memory name) public{\r\n        candidatesCount++;\r\n        candidates[candidatesCount] = Candidate(candidatesCount, name, 0);\r\n    }\r\n    \r\n    function vote(uint _candidateId) public {\r\n        require(!votedornot[msg.sender]);\r\n        require(_candidateId > 0 && _candidateId <= candidatesCount);\r\n        \r\n        candidates[_candidateId].voteCount++;\r\n        votedornot[msg.sender] = true;\r\n        \r\n        emit electionOnUpdated(_candidateId);\r\n        //triger event candidate\r\n    }\r\n}\r\n",
  "sourcePath": "C:/Users/017/Desktop/Blockchain/DAPP/election-app/contracts/Election.sol",
  "compiler": {
    "name": "solc",
    "version": "0.7.0+commit.9e61f92b.Emscripten.clang"
  },
  "schemaVersion": "3.4.1",
  "updatedAt": "2021-09-07T08:36:38.307Z",
  "networkType": "ethereum",
  "devdoc": {
    "kind": "dev",
    "methods": {},
    "version": 1
  },
  "userdoc": {
    "kind": "user",
    "methods": {},
    "version": 1
  }
}